S01500004469676974616C20436C6F636B2E7372656345
S11300000C942A000C9447000C9447000C9447006D
S11300100C9447000C9447000C9411040C94BF03F7
S11300200C94E8030C9496030C9447000C946D0311
S11300300C9447000C9447000C9447000C94470020
S11300400C9447000C9447000C9447000C94470010
S11300500C94470011241FBECFE5D8E0DEBFCDBF0E
S113006010E0A0E6B0E0E0EFFAE002C005900D92E7
S1130070A03AB107D9F720E0A0EAB0E001C01D9290
S1130080A33DB207E1F70E9416010C9476050C9487
S11300900000CF93DF93C0E0D0E00BC062E08C2F70
S11300A0805F0E941F01FE01ED55FF4F81E08083B8
S11300B02196C330D10594F3DF91CF910895E82FB1
S11300C0F0E0ED55FF4F808191E090830895CF9348
S11300D0DF93C0E0D0E026C0FE01ED55FF4F8081E4
S11300E08130F9F48C2F805F0E94B102811107C026
S11300F0FE01E056FF4F80818F5F808304C0FE01C4
S1130100E056FF4F1082FE01E056FF4F8081863992
S113011040F0FE01E056FF4F1082FE01ED55FF4F07
S113012010822196C330D105BCF2DF91CF9108959E
S11301308091A6008F5F8093A600823021F118F48D
S1130140813039F00895833091F1843009F449C045
S1130150089560E085E00E942C0261E086E00E9440
S11301602C028091A8009DEC899F912D11249695D5
S113017096959695990F292F220F220F920F891B7E
S11301800E940C01089560E086E00E942C0261E068
S113019085E00E942C028091A8009DEC899F812D0E
S11301A011248695869586950E940C01089560E039
S11301B087E00E942C0261E084E00E942C0280917E
S11301C0A7009DEC899F912D11249695969596955F
S11301D0990F292F220F220F920F891B0E940C01C5
S11301E0089560E084E00E942C0261E087E00E94B0
S11301F02C028091A7009DEC899F812D1124869566
S1130200869586950E940C011092A600089580930D
S1130210A7006093A8000895E82FF0E0E05AFF4F8C
S11302206081609581E00E942A0308950E941C0267
S11302300E9449000E94E1040E946505FDCF982FA9
S11302409695969596958770613009F455C020F07F
S1130250623009F4A1C008959130C1F028F09230C1
S113026039F19330B9F108954AB321E030E0B9018E
S113027002C0660F771F8A95E2F7CB01942F982B63
S11302809ABB9BB3809589238BBB089547B321E028
S113029030E0B90102C0660F771F8A95E2F7CB01FF
S11302A0942F982B97BB98B38095892388BB089586
S11302B044B321E030E0B90102C0660F771F8A958C
S11302C0E2F7CB01942F982B94BB95B380958923A7
S11302D085BB089541B321E030E0B90102C0660F47
S11302E0771F8A95E2F7CB01942F982B91BB92B399
S11302F08095892382BB08959130C1F028F0923013
S113030039F19330B9F108954AB321E030E0B901ED
S113031002C0660F771F8A95E2F7CB018095942F70
S113032098239ABB9BB389238BBB089547B321E0E1
S113033030E0B90102C0660F771F8A95E2F7CB015E
S11303408095942F982397BB98B3892388BB0895ED
S113035044B321E030E0B90102C0660F771F8A95EB
S1130360E2F7CB018095942F982394BB95B389230E
S113037085BB089541B321E030E0B90102C0660FA6
S1130380771F8A95E2F7CB018095942F982391BB30
S113039092B3892382BB08959130C1F028F0923042
S11303A039F19330B9F108954AB321E030E0B9014D
S11303B002C0660F771F8A95E2F7CB01962F9095BE
S11303C094239ABB9BB3892B8BBB089547B321E03D
S11303D030E0B90102C0660F771F8A95E2F7CB01BE
S11303E0962F9095942397BB98B3892B88BB089537
S11303F044B321E030E0B90102C0660F771F8A954B
S1130400E2F7CB01962F9095942394BB95B3892B57
S113041085BB089541B321E030E0B90102C0660F05
S1130420771F8A95E2F7CB01962F9095942391BB81
S113043092B3892B82BB0895CF93C0E009C0EC2FFF
S1130440F0E0E059FF4F60818C2F0E941F01CF5FC5
S1130450C032A8F3CF910895982F969596959695C6
S113046087706130E1F5913099F028F09230E9F02D
S1130470933041F108954BB321E030E0B90102C05B
S1130480660F771F8A95E2F7CB01842B8BBB089507
S113049048B321E030E0B90102C0660F771F8A95A6
S11304A0E2F7CB01842B88BB089545B321E030E00B
S11304B0B90102C0660F771F8A95E2F7CB01842B3E
S11304C085BB089542B321E030E0B90102C0660F54
S11304D0771F8A95E2F7CB01842B82BB08956111C3
S11304E03FC09130A1F028F09230F9F0933059F1E7
S11304F008954BB321E030E0B90102C0660F771FC5
S11305008A95E2F7CB01809584238BBB089548B389
S113051021E030E0B90102C0660F771F8A95E2F747
S1130520CB018095842388BB089545B321E030E056
S1130530B90102C0660F771F8A95E2F7CB01809557
S1130540842385BB089542B321E030E0B90102C0A1
S1130550660F771F8A95E2F7CB018095842382BBCF
S11305600895982F969596959695482F47709130B3
S113057081F028F09230B9F09330F9F028C099B3A3
S1130580892F90E002C0959587954A95E2F781708E
S1130590089526B330E0C90102C0959587954A9520
S11305A0E2F78170089523B330E0C90102C0959544
S11305B087954A95E2F78170089520B330E0C90128
S11305C002C0959587954A95E2F78170089580E079
S11305D00895982F9695969596958770913099F0F1
S11305E028F09230E9F0933041F108954BB321E0C3
S11305F030E0B90102C0660F771F8A95E2F7CB019C
S113060084278BBB089548B321E030E0B90102C0D0
S1130610660F771F8A95E2F7CB01842788BB08957C
S113062045B321E030E0B90102C0660F771F8A9517
S1130630E2F7CB01842785BB089542B321E030E083
S1130640B90102C0660F771F8A95E2F7CB018427B0
S113065082BB0895813041F028F0823039F0833034
S113066039F008956BBB089568BB089565BB089580
S113067062BB0895813069F028F0823089F08330BC
S1130680B1F01BC083B78F7B83BF83B7877F83BFE2
S113069014C083B7806483BF83B7877F83BF0DC0D3
S11306A083B78F7B83BF83B7886083BF06C083B75C
S11306B0806483BF83B7886083BF83B7887F83BF29
S11306C083B7682B63BF089589B7816089BF089594
S11306D09093AA008093A90008951F920F920FB6D9
S11306E00F9211242F933F934F935F936F937F93B4
S11306F08F939F93AF93BF93EF93FF93E091A900E0
S1130700F091AA00309709F00995FF91EF91BF91FC
S1130710AF919F918F917F916F915F914F913F9195
S11307202F910F900FBE0F901F9018951F920F924C
S11307300FB60F9211242F933F934F935F936F93B0
S11307407F938F939F93AF93BF93EF93FF93E09126
S1130750AB00F091AC00309709F00995FF91EF914F
S1130760BF91AF919F918F917F916F915F914F91C5
S11307703F912F910F900FBE0F901F9018951F92CD
S11307800F920FB60F9211242F933F934F935F93C1
S11307906F937F938F939F93AF93BF93EF93FF9345
S11307A0E091AD00F091AE00309709F00995FF910A
S11307B0EF91BF91AF919F918F917F916F915F91D5
S11307C04F913F912F910F900FBE0F901F9018954E
S11307D01F920F920FB60F9211242F933F934F93B2
S11307E05F936F937F938F939F93AF93BF93EF9395
S11307F0FF93E091AF00F091B000309709F00995B4
S1130800FF91EF91BF91AF919F918F917F916F91E4
S11308105F914F913F912F910F900FBE0F901F90BA
S113082018951F920F920FB60F9211242F933F9396
S11308304F935F936F937F938F939F93AF93BF93E4
S1130840EF93FF93E091B100F091B200309709F07B
S11308500995FF91EF91BF91AF919F918F917F91F6
S11308606F915F914F913F912F910F900FBE0F9019
S11308701F90189581E00E945F00811115C08FE1DF
S11308800E94E9028091B300813041F018F0823077
S113089049F0089581E08093B300089582E0809345
S11308A0B30008951092B30008958091B3000895A1
S11308B08091CF008F5F8093CF008091D0008F5FB5
S11308C08093D0008DE782BF08958091B400909109
S11308D0B50001969093B5008093B4008D3C92408E
S11308E0D9F46091D2008091D1008F5F8093D100C0
S11308F00E9407018091D1008C3351F41092D100F1
S11309006091D2006F5F6093D20080E00E94070183
S11309101092B5001092B40008950E9455048130DD
S1130920B9F480E00E945F0091E0811190E0809131
S1130930D100980F9093D10082E00E945F0091E073
S1130940811190E08091D100891B8093D1001AC05D
S11309500E9455048230B1F480E00E945F0091E06F
S1130960811190E08091D200980F9093D20082E0A0
S11309700E945F0091E0811190E08091D200891B78
S11309808093D2008091D1008C331CF01092D1005E
S113099005C088231CF48BE38093D1008091D2009E
S11309A08C331CF01092D20005C088231CF48BE316
S11309B08093D2006091D2008091D1000E940701FF
S11309C0089580E090E01AC0FC01EE0FFF1FEB5683
S11309D0FF4F20813181FC01EE0FFF1FEE0FFF1F3F
S11309E0E80FF91FEA54FF4F31832083DC01A0573D
S11309F0BF4F2C9122831382148201968530910576
S1130A001CF363E080E00E943A0388E594E00E94CE
S1130A10680378940E9464030895CF93C0E02BC0C8
S1130A200E945504882311F0CC2319F0C13021F41D
S1130A3002C0C1E001C0C2E02C2F30E0F901EE0F8A
S1130A40FF1FEE0FFF1FE20FF31FEA54FF4F8381D6
S1130A508F5F8383928189130DC0F901EE0FFF1F0D
S1130A60EE0FFF1F2E0F3F1FF901EA54FF4F81E0E5
S1130A7084831382CF5FC53098F2CF910895CF93CA
S1130A80DF93C0E0D0E01BC0FE01EE0FFF1FEE0FAE
S1130A90FF1FEC0FFD1FEA54FF4F8481813071F476
S1130AA0FE01EE0FFF1FEE0FFF1FEC0FFD1FEA54B8
S1130AB0FF4F14820190F081E02D09952196C530F5
S1130AC0D10514F3DF91CF9108958091CF00813047
S1130AD021F40E940D051092CF000E943F058091E1
S1130AE0D000843111F41092D0000895F894FFCF0F
S1130AF03F065B4F666D7D077F6F777C585E79712B
S1130B0001000000000000000000000000000000E0
S1130B1000000000000000000000020200000100CC
S1130B200132010A0565048D0467003A0498000047
S9030000FC
